S01300002E2E2F62696E2F617070692E7372656374
S3150801F00008B500F055F8094B18780949E8F7E6FDFF
S3150801F010084842F21071084AEBF7B2FB074800218B
S3150801F020074AEBF775FE002008BD00BF7D020020E8
S3150801F03034F1010844F1010845F001084CF10108D1
S3150801F04079F0010808B5084B1A6812F0010F074B49
S3150801F050187814BF06490749E8F7C0FD024A13683C
S3150801F0600133136008BD00BF4C0500207D02002056
S3150801F070E4F00108F4F0010810B50C46084B1878BD
S3150801F0800849E9F7F7FB20680749EAF793FF20B92A
S3150801F090034B18780549E8F7A1FD002010BD00BF0C
S3150801F0A07D02002010F101081CF1010824F1010874
S3150801F0B008B5074B18460749074AD21AEAF7E0FE88
S3150801F0C0064B18460021064AD21AEAF7E7FE08BD9A
S3150801F0D04C05002054F101084C0500204C05002080
S3090801F0E050050020A8
S3150801F0E4417070692D7461736B692025640A000087
S3150801F0F4417070692D7461736B6920256420787871
S3150801F104787878787878780A000000004F554A4567
S3150801F1144521210A0000000073746174000000008F
S3150801F1244B41494B4B4920485956494E210A00003F
S3150801F1344170706920696E69746F697475210A0072
S3150801F1444150504958000000617070690000000080
S7050801F00001
